:030000000200A05B
:0C00A000787FE4F6D8FD75811C0200E7B3
:0B0288003F065B4F666D7D077F6F77C0
:10023000011A01060E10162324100106148183856D
:0B0240008D898706088082848C8886E8
:1001EA00EB1392B4EBC313FBD2B67F017E0012026B
:0701FA0001C2B67F017E0087
:0C020100EF4E6007EF1F70F81E80F52222
:02016400AB07E7
:10016600D2B51201FBE4FA1201EA0ABA08F9E4FA76
:10017600A2B4E433FCC43333335480FFEDC3134FCE
:0F018600FD1201F20ABA08E81201FDC2B5AF0579
:010195002247
:0201C300AB0788
:1001C500D2B51201FBE4FA1201EA0ABA08F9E4FA17
:1001D500ED1392B4EDC313FD1201F20ABA08F11240
:0401E50001FDC2B5A1
:0101E90022F3
:10020D00E4FD7F8E1201C3E4FC74082CF8E6FF7444
:10021D000E2CF8E6FD1201C30CBC06ED7D807F8E21
:03022D000201C308
:10024C00E4F9741429F8E6FF120164740E29F8A677
:05025C000709B906EDE1
:01026100227A
:10000E00ED6005E4F51C8003751C03E4F51BE51B90
:10001E00C394075063E51B25E025E0F5A0E51B75AD
:10002E00F00384251CF582E433F583120196540FF8
:10003E0090028893F5807F647E00120201E51B0416
:10004E0025E025E0F5A0E51B75F00384251CF5825F
:10005E00E433F583120196C4540F7E00540F2488A6
:10006E00F582EE3402F583E493F5807F641202018B
:10007E007403251BF51B809675A0087580407F6460
:10008E007E0012020175A0147580407F647E00020E
:02009E0002015D
:10027800758901758CFC758A18D2A9D2AFD28C22E7
:03000B0002012CC3
:10012C00C0E0C0D075D000C006C00730A92120B3F4
:10013C00187F647E0012020120B302051AD3E51A5F
:10014C00648094814003751A00758CFC758A18D0F4
:08015C0007D006D0D0D0E0323C
:1002620012020D12027812024C7B007A00790EAD56
:060272001A12000E80F0DC
:1000AC00020262E493A3F8E493A34003F68001F206
:1000BC0008DFF48029E493A3F85407240CC8C33355
:1000CC00C4540F4420C8834004F456800146F6DF24
:1000DC00E4800B0102040810204080900230E47E82
:1000EC00019360BCA3FF543F30E509541FFEE49319
:1000FC00A360010ECF54C025E060A840B8E493A3E0
:10010C00FAE493A3F8E493A3C8C582C8CAC583CA0A
:10011C00F0A3C8C582C8CAC583CADFE9DEE780BEC2
:01024B0000B2
:10019600BB010CE58229F582E5833AF583E022501E
:1001A60006E92582F8E622BBFE06E92582F8E22268
:0D01B600E58229F582E5833AF583E4932282
:00000001FF
